{
  "contracts/BookDatabase.sol": {
    "BookDatabase": {
      "abi": [
        {
          "inputs": [],
          "stateMutability": "nonpayable",
          "type": "constructor"
        },
        {
          "inputs": [
            {
              "components": [
                {
                  "internalType": "string",
                  "name": "title",
                  "type": "string"
                },
                {
                  "internalType": "uint16",
                  "name": "year",
                  "type": "uint16"
                }
              ],
              "internalType": "struct BookDatabase.Book",
              "name": "newBook",
              "type": "tuple"
            }
          ],
          "name": "addBook",
          "outputs": [],
          "stateMutability": "nonpayable",
          "type": "function"
        },
        {
          "inputs": [
            {
              "internalType": "uint32",
              "name": "",
              "type": "uint32"
            }
          ],
          "name": "books",
          "outputs": [
            {
              "internalType": "string",
              "name": "title",
              "type": "string"
            },
            {
              "internalType": "uint16",
              "name": "year",
              "type": "uint16"
            }
          ],
          "stateMutability": "view",
          "type": "function"
        },
        {
          "inputs": [],
          "name": "count",
          "outputs": [
            {
              "internalType": "uint256",
              "name": "",
              "type": "uint256"
            }
          ],
          "stateMutability": "view",
          "type": "function"
        },
        {
          "inputs": [
            {
              "internalType": "uint32",
              "name": "id",
              "type": "uint32"
            },
            {
              "components": [
                {
                  "internalType": "string",
                  "name": "title",
                  "type": "string"
                },
                {
                  "internalType": "uint16",
                  "name": "year",
                  "type": "uint16"
                }
              ],
              "internalType": "struct BookDatabase.Book",
              "name": "newBook",
              "type": "tuple"
            }
          ],
          "name": "editBook",
          "outputs": [],
          "stateMutability": "nonpayable",
          "type": "function"
        },
        {
          "inputs": [
            {
              "internalType": "uint32",
              "name": "id",
              "type": "uint32"
            }
          ],
          "name": "removeBook",
          "outputs": [],
          "stateMutability": "nonpayable",
          "type": "function"
        }
      ],
      "evm": {
        "bytecode": {
          "linkReferences": {},
          "object": "60a06040526000600160006101000a81548163ffffffff021916908363ffffffff16021790555034801561003257600080fd5b503373ffffffffffffffffffffffffffffffffffffffff1660808173ffffffffffffffffffffffffffffffffffffffff1681525050608051610e88610082600039600061028a0152610e886000f3fe608060405234801561001057600080fd5b50600436106100575760003560e01c806306661abd1461005c57806368d748ca1461007a578063b19a4635146100ab578063e9e7ff0c146100c7578063feaeb5ab146100e3575b600080fd5b6100646100ff565b6040516100719190610625565b60405180910390f35b610094600480360381019061008f9190610690565b610105565b6040516100a292919061076a565b60405180910390f35b6100c560048036038101906100c09190610971565b6101bf565b005b6100e160048036038101906100dc9190610690565b610288565b005b6100fd60048036038101906100f891906109ba565b6103b5565b005b60005481565b600260205280600052604060002060009150905080600001805461012890610a45565b80601f016020809104026020016040519081016040528092919081815260200182805461015490610a45565b80156101a15780601f10610176576101008083540402835291602001916101a1565b820191906000526020600020905b81548152906001019060200180831161018457829003601f168201915b5050505050908060010160009054906101000a900461ffff16905082565b6001600081819054906101000a900463ffffffff16809291906101e190610aa5565b91906101000a81548163ffffffff021916908363ffffffff160217905550508060026000600160009054906101000a900463ffffffff1663ffffffff1663ffffffff16815260200190815260200160002060008201518160000190816102479190610c7d565b5060208201518160010160006101000a81548161ffff021916908361ffff16021790555090505060008081548092919061028090610d4f565b919050555050565b7f000000000000000000000000000000000000000000000000000000000000000073ffffffffffffffffffffffffffffffffffffffff163373ffffffffffffffffffffffffffffffffffffffff1614610316576040517f08c379a000000000000000000000000000000000000000000000000000000000815260040161030d90610e09565b60405180910390fd5b6000600260008363ffffffff1663ffffffff16815260200190815260200160002060010160009054906101000a900461ffff1661ffff1611156103b257600260008263ffffffff1663ffffffff1681526020019081526020016000206000808201600061038391906105af565b6001820160006101000a81549061ffff021916905550506000808154809291906103ac90610e29565b91905055505b50565b6000600260008463ffffffff1663ffffffff1681526020019081526020016000206040518060400160405290816000820180546103f190610a45565b80601f016020809104026020016040519081016040528092919081815260200182805461041d90610a45565b801561046a5780601f1061043f5761010080835404028352916020019161046a565b820191906000526020600020905b81548152906001019060200180831161044d57829003601f168201915b505050505081526020016001820160009054906101000a900461ffff1661ffff1661ffff168152505090506104a78160000151836000015161057c565b1580156104ce57506104cc82600001516040518060200160405280600081525061057c565b155b15610508578160000151600260008563ffffffff1663ffffffff16815260200190815260200160002060000190816105069190610c7d565b505b816020015161ffff16816020015161ffff161415801561053057506000826020015161ffff16115b15610577578160200151600260008563ffffffff1663ffffffff16815260200190815260200160002060010160006101000a81548161ffff021916908361ffff1602179055505b505050565b6000808390506000839050805182511480156105a5575080805190602001208280519060200120145b9250505092915050565b5080546105bb90610a45565b6000825580601f106105cd57506105ec565b601f0160209004906000526020600020908101906105eb91906105ef565b5b50565b5b808211156106085760008160009055506001016105f0565b5090565b6000819050919050565b61061f8161060c565b82525050565b600060208201905061063a6000830184610616565b92915050565b6000604051905090565b600080fd5b600080fd5b600063ffffffff82169050919050565b61066d81610654565b811461067857600080fd5b50565b60008135905061068a81610664565b92915050565b6000602082840312156106a6576106a561064a565b5b60006106b48482850161067b565b91505092915050565b600081519050919050565b600082825260208201905092915050565b60005b838110156106f75780820151818401526020810190506106dc565b60008484015250505050565b6000601f19601f8301169050919050565b600061071f826106bd565b61072981856106c8565b93506107398185602086016106d9565b61074281610703565b840191505092915050565b600061ffff82169050919050565b6107648161074d565b82525050565b600060408201905081810360008301526107848185610714565b9050610793602083018461075b565b9392505050565b600080fd5b7f4e487b7100000000000000000000000000000000000000000000000000000000600052604160045260246000fd5b6107d782610703565b810181811067ffffffffffffffff821117156107f6576107f561079f565b5b80604052505050565b6000610809610640565b905061081582826107ce565b919050565b600080fd5b600080fd5b600080fd5b600067ffffffffffffffff8211156108445761084361079f565b5b61084d82610703565b9050602081019050919050565b82818337600083830152505050565b600061087c61087784610829565b6107ff565b90508281526020810184848401111561089857610897610824565b5b6108a384828561085a565b509392505050565b600082601f8301126108c0576108bf61081f565b5b81356108d0848260208601610869565b91505092915050565b6108e28161074d565b81146108ed57600080fd5b50565b6000813590506108ff816108d9565b92915050565b60006040828403121561091b5761091a61079a565b5b61092560406107ff565b9050600082013567ffffffffffffffff8111156109455761094461081a565b5b610951848285016108ab565b6000830152506020610965848285016108f0565b60208301525092915050565b6000602082840312156109875761098661064a565b5b600082013567ffffffffffffffff8111156109a5576109a461064f565b5b6109b184828501610905565b91505092915050565b600080604083850312156109d1576109d061064a565b5b60006109df8582860161067b565b925050602083013567ffffffffffffffff811115610a00576109ff61064f565b5b610a0c85828601610905565b9150509250929050565b7f4e487b7100000000000000000000000000000000000000000000000000000000600052602260045260246000fd5b60006002820490506001821680610a5d57607f821691505b602082108103610a7057610a6f610a16565b5b50919050565b7f4e487b7100000000000000000000000000000000000000000000000000000000600052601160045260246000fd5b6000610ab082610654565b915063ffffffff8203610ac657610ac5610a76565b5b600182019050919050565b60008190508160005260206000209050919050565b60006020601f8301049050919050565b600082821b905092915050565b600060088302610b337fffffffffffffffffffffffffffffffffffffffffffffffffffffffffffffffff82610af6565b610b3d8683610af6565b95508019841693508086168417925050509392505050565b6000819050919050565b6000610b7a610b75610b708461060c565b610b55565b61060c565b9050919050565b6000819050919050565b610b9483610b5f565b610ba8610ba082610b81565b848454610b03565b825550505050565b600090565b610bbd610bb0565b610bc8818484610b8b565b505050565b5b81811015610bec57610be1600082610bb5565b600181019050610bce565b5050565b601f821115610c3157610c0281610ad1565b610c0b84610ae6565b81016020851015610c1a578190505b610c2e610c2685610ae6565b830182610bcd565b50505b505050565b600082821c905092915050565b6000610c5460001984600802610c36565b1980831691505092915050565b6000610c6d8383610c43565b9150826002028217905092915050565b610c86826106bd565b67ffffffffffffffff811115610c9f57610c9e61079f565b5b610ca98254610a45565b610cb4828285610bf0565b600060209050601f831160018114610ce75760008415610cd5578287015190505b610cdf8582610c61565b865550610d47565b601f198416610cf586610ad1565b60005b82811015610d1d57848901518255600182019150602085019450602081019050610cf8565b86831015610d3a5784890151610d36601f891682610c43565b8355505b6001600288020188555050505b505050505050565b6000610d5a8261060c565b91507fffffffffffffffffffffffffffffffffffffffffffffffffffffffffffffffff8203610d8c57610d8b610a76565b5b600182019050919050565b7f596f7520646f6e27742068617665207065726d697373696f6e20666f7220697460008201527f2e00000000000000000000000000000000000000000000000000000000000000602082015250565b6000610df36021836106c8565b9150610dfe82610d97565b604082019050919050565b60006020820190508181036000830152610e2281610de6565b9050919050565b6000610e348261060c565b915060008203610e4757610e46610a76565b5b60018203905091905056fea2646970667358221220ec71a47ce459bf4b328e8678b1fbc13cc36dbf37a318c49cc4c3a42276ba123164736f6c63430008140033",
          "opcodes": "PUSH1 0xA0 PUSH1 0x40 MSTORE PUSH1 0x0 PUSH1 0x1 PUSH1 0x0 PUSH2 0x100 EXP DUP2 SLOAD DUP2 PUSH4 0xFFFFFFFF MUL NOT AND SWAP1 DUP4 PUSH4 0xFFFFFFFF AND MUL OR SWAP1 SSTORE POP CALLVALUE DUP1 ISZERO PUSH2 0x32 JUMPI PUSH1 0x0 DUP1 REVERT JUMPDEST POP CALLER PUSH20 0xFFFFFFFFFFFFFFFFFFFFFFFFFFFFFFFFFFFFFFFF AND PUSH1 0x80 DUP2 PUSH20 0xFFFFFFFFFFFFFFFFFFFFFFFFFFFFFFFFFFFFFFFF AND DUP2 MSTORE POP POP PUSH1 0x80 MLOAD PUSH2 0xE88 PUSH2 0x82 PUSH1 0x0 CODECOPY PUSH1 0x0 PUSH2 0x28A ADD MSTORE PUSH2 0xE88 PUSH1 0x0 RETURN INVALID PUSH1 0x80 PUSH1 0x40 MSTORE CALLVALUE DUP1 ISZERO PUSH2 0x10 JUMPI PUSH1 0x0 DUP1 REVERT JUMPDEST POP PUSH1 0x4 CALLDATASIZE LT PUSH2 0x57 JUMPI PUSH1 0x0 CALLDATALOAD PUSH1 0xE0 SHR DUP1 PUSH4 0x6661ABD EQ PUSH2 0x5C JUMPI DUP1 PUSH4 0x68D748CA EQ PUSH2 0x7A JUMPI DUP1 PUSH4 0xB19A4635 EQ PUSH2 0xAB JUMPI DUP1 PUSH4 0xE9E7FF0C EQ PUSH2 0xC7 JUMPI DUP1 PUSH4 0xFEAEB5AB EQ PUSH2 0xE3 JUMPI JUMPDEST PUSH1 0x0 DUP1 REVERT JUMPDEST PUSH2 0x64 PUSH2 0xFF JUMP JUMPDEST PUSH1 0x40 MLOAD PUSH2 0x71 SWAP2 SWAP1 PUSH2 0x625 JUMP JUMPDEST PUSH1 0x40 MLOAD DUP1 SWAP2 SUB SWAP1 RETURN JUMPDEST PUSH2 0x94 PUSH1 0x4 DUP1 CALLDATASIZE SUB DUP2 ADD SWAP1 PUSH2 0x8F SWAP2 SWAP1 PUSH2 0x690 JUMP JUMPDEST PUSH2 0x105 JUMP JUMPDEST PUSH1 0x40 MLOAD PUSH2 0xA2 SWAP3 SWAP2 SWAP1 PUSH2 0x76A JUMP JUMPDEST PUSH1 0x40 MLOAD DUP1 SWAP2 SUB SWAP1 RETURN JUMPDEST PUSH2 0xC5 PUSH1 0x4 DUP1 CALLDATASIZE SUB DUP2 ADD SWAP1 PUSH2 0xC0 SWAP2 SWAP1 PUSH2 0x971 JUMP JUMPDEST PUSH2 0x1BF JUMP JUMPDEST STOP JUMPDEST PUSH2 0xE1 PUSH1 0x4 DUP1 CALLDATASIZE SUB DUP2 ADD SWAP1 PUSH2 0xDC SWAP2 SWAP1 PUSH2 0x690 JUMP JUMPDEST PUSH2 0x288 JUMP JUMPDEST STOP JUMPDEST PUSH2 0xFD PUSH1 0x4 DUP1 CALLDATASIZE SUB DUP2 ADD SWAP1 PUSH2 0xF8 SWAP2 SWAP1 PUSH2 0x9BA JUMP JUMPDEST PUSH2 0x3B5 JUMP JUMPDEST STOP JUMPDEST PUSH1 0x0 SLOAD DUP2 JUMP JUMPDEST PUSH1 0x2 PUSH1 0x20 MSTORE DUP1 PUSH1 0x0 MSTORE PUSH1 0x40 PUSH1 0x0 KECCAK256 PUSH1 0x0 SWAP2 POP SWAP1 POP DUP1 PUSH1 0x0 ADD DUP1 SLOAD PUSH2 0x128 SWAP1 PUSH2 0xA45 JUMP JUMPDEST DUP1 PUSH1 0x1F ADD PUSH1 0x20 DUP1 SWAP2 DIV MUL PUSH1 0x20 ADD PUSH1 0x40 MLOAD SWAP1 DUP2 ADD PUSH1 0x40 MSTORE DUP1 SWAP3 SWAP2 SWAP1 DUP2 DUP2 MSTORE PUSH1 0x20 ADD DUP3 DUP1 SLOAD PUSH2 0x154 SWAP1 PUSH2 0xA45 JUMP JUMPDEST DUP1 ISZERO PUSH2 0x1A1 JUMPI DUP1 PUSH1 0x1F LT PUSH2 0x176 JUMPI PUSH2 0x100 DUP1 DUP4 SLOAD DIV MUL DUP4 MSTORE SWAP2 PUSH1 0x20 ADD SWAP2 PUSH2 0x1A1 JUMP JUMPDEST DUP3 ADD SWAP2 SWAP1 PUSH1 0x0 MSTORE PUSH1 0x20 PUSH1 0x0 KECCAK256 SWAP1 JUMPDEST DUP2 SLOAD DUP2 MSTORE SWAP1 PUSH1 0x1 ADD SWAP1 PUSH1 0x20 ADD DUP1 DUP4 GT PUSH2 0x184 JUMPI DUP3 SWAP1 SUB PUSH1 0x1F AND DUP3 ADD SWAP2 JUMPDEST POP POP POP POP POP SWAP1 DUP1 PUSH1 0x1 ADD PUSH1 0x0 SWAP1 SLOAD SWAP1 PUSH2 0x100 EXP SWAP1 DIV PUSH2 0xFFFF AND SWAP1 POP DUP3 JUMP JUMPDEST PUSH1 0x1 PUSH1 0x0 DUP2 DUP2 SWAP1 SLOAD SWAP1 PUSH2 0x100 EXP SWAP1 DIV PUSH4 0xFFFFFFFF AND DUP1 SWAP3 SWAP2 SWAP1 PUSH2 0x1E1 SWAP1 PUSH2 0xAA5 JUMP JUMPDEST SWAP2 SWAP1 PUSH2 0x100 EXP DUP2 SLOAD DUP2 PUSH4 0xFFFFFFFF MUL NOT AND SWAP1 DUP4 PUSH4 0xFFFFFFFF AND MUL OR SWAP1 SSTORE POP POP DUP1 PUSH1 0x2 PUSH1 0x0 PUSH1 0x1 PUSH1 0x0 SWAP1 SLOAD SWAP1 PUSH2 0x100 EXP SWAP1 DIV PUSH4 0xFFFFFFFF AND PUSH4 0xFFFFFFFF AND PUSH4 0xFFFFFFFF AND DUP2 MSTORE PUSH1 0x20 ADD SWAP1 DUP2 MSTORE PUSH1 0x20 ADD PUSH1 0x0 KECCAK256 PUSH1 0x0 DUP3 ADD MLOAD DUP2 PUSH1 0x0 ADD SWAP1 DUP2 PUSH2 0x247 SWAP2 SWAP1 PUSH2 0xC7D JUMP JUMPDEST POP PUSH1 0x20 DUP3 ADD MLOAD DUP2 PUSH1 0x1 ADD PUSH1 0x0 PUSH2 0x100 EXP DUP2 SLOAD DUP2 PUSH2 0xFFFF MUL NOT AND SWAP1 DUP4 PUSH2 0xFFFF AND MUL OR SWAP1 SSTORE POP SWAP1 POP POP PUSH1 0x0 DUP1 DUP2 SLOAD DUP1 SWAP3 SWAP2 SWAP1 PUSH2 0x280 SWAP1 PUSH2 0xD4F JUMP JUMPDEST SWAP2 SWAP1 POP SSTORE POP POP JUMP JUMPDEST PUSH32 0x0 PUSH20 0xFFFFFFFFFFFFFFFFFFFFFFFFFFFFFFFFFFFFFFFF AND CALLER PUSH20 0xFFFFFFFFFFFFFFFFFFFFFFFFFFFFFFFFFFFFFFFF AND EQ PUSH2 0x316 JUMPI PUSH1 0x40 MLOAD PUSH32 0x8C379A000000000000000000000000000000000000000000000000000000000 DUP2 MSTORE PUSH1 0x4 ADD PUSH2 0x30D SWAP1 PUSH2 0xE09 JUMP JUMPDEST PUSH1 0x40 MLOAD DUP1 SWAP2 SUB SWAP1 REVERT JUMPDEST PUSH1 0x0 PUSH1 0x2 PUSH1 0x0 DUP4 PUSH4 0xFFFFFFFF AND PUSH4 0xFFFFFFFF AND DUP2 MSTORE PUSH1 0x20 ADD SWAP1 DUP2 MSTORE PUSH1 0x20 ADD PUSH1 0x0 KECCAK256 PUSH1 0x1 ADD PUSH1 0x0 SWAP1 SLOAD SWAP1 PUSH2 0x100 EXP SWAP1 DIV PUSH2 0xFFFF AND PUSH2 0xFFFF AND GT ISZERO PUSH2 0x3B2 JUMPI PUSH1 0x2 PUSH1 0x0 DUP3 PUSH4 0xFFFFFFFF AND PUSH4 0xFFFFFFFF AND DUP2 MSTORE PUSH1 0x20 ADD SWAP1 DUP2 MSTORE PUSH1 0x20 ADD PUSH1 0x0 KECCAK256 PUSH1 0x0 DUP1 DUP3 ADD PUSH1 0x0 PUSH2 0x383 SWAP2 SWAP1 PUSH2 0x5AF JUMP JUMPDEST PUSH1 0x1 DUP3 ADD PUSH1 0x0 PUSH2 0x100 EXP DUP2 SLOAD SWAP1 PUSH2 0xFFFF MUL NOT AND SWAP1 SSTORE POP POP PUSH1 0x0 DUP1 DUP2 SLOAD DUP1 SWAP3 SWAP2 SWAP1 PUSH2 0x3AC SWAP1 PUSH2 0xE29 JUMP JUMPDEST SWAP2 SWAP1 POP SSTORE POP JUMPDEST POP JUMP JUMPDEST PUSH1 0x0 PUSH1 0x2 PUSH1 0x0 DUP5 PUSH4 0xFFFFFFFF AND PUSH4 0xFFFFFFFF AND DUP2 MSTORE PUSH1 0x20 ADD SWAP1 DUP2 MSTORE PUSH1 0x20 ADD PUSH1 0x0 KECCAK256 PUSH1 0x40 MLOAD DUP1 PUSH1 0x40 ADD PUSH1 0x40 MSTORE SWAP1 DUP2 PUSH1 0x0 DUP3 ADD DUP1 SLOAD PUSH2 0x3F1 SWAP1 PUSH2 0xA45 JUMP JUMPDEST DUP1 PUSH1 0x1F ADD PUSH1 0x20 DUP1 SWAP2 DIV MUL PUSH1 0x20 ADD PUSH1 0x40 MLOAD SWAP1 DUP2 ADD PUSH1 0x40 MSTORE DUP1 SWAP3 SWAP2 SWAP1 DUP2 DUP2 MSTORE PUSH1 0x20 ADD DUP3 DUP1 SLOAD PUSH2 0x41D SWAP1 PUSH2 0xA45 JUMP JUMPDEST DUP1 ISZERO PUSH2 0x46A JUMPI DUP1 PUSH1 0x1F LT PUSH2 0x43F JUMPI PUSH2 0x100 DUP1 DUP4 SLOAD DIV MUL DUP4 MSTORE SWAP2 PUSH1 0x20 ADD SWAP2 PUSH2 0x46A JUMP JUMPDEST DUP3 ADD SWAP2 SWAP1 PUSH1 0x0 MSTORE PUSH1 0x20 PUSH1 0x0 KECCAK256 SWAP1 JUMPDEST DUP2 SLOAD DUP2 MSTORE SWAP1 PUSH1 0x1 ADD SWAP1 PUSH1 0x20 ADD DUP1 DUP4 GT PUSH2 0x44D JUMPI DUP3 SWAP1 SUB PUSH1 0x1F AND DUP3 ADD SWAP2 JUMPDEST POP POP POP POP POP DUP2 MSTORE PUSH1 0x20 ADD PUSH1 0x1 DUP3 ADD PUSH1 0x0 SWAP1 SLOAD SWAP1 PUSH2 0x100 EXP SWAP1 DIV PUSH2 0xFFFF AND PUSH2 0xFFFF AND PUSH2 0xFFFF AND DUP2 MSTORE POP POP SWAP1 POP PUSH2 0x4A7 DUP2 PUSH1 0x0 ADD MLOAD DUP4 PUSH1 0x0 ADD MLOAD PUSH2 0x57C JUMP JUMPDEST ISZERO DUP1 ISZERO PUSH2 0x4CE JUMPI POP PUSH2 0x4CC DUP3 PUSH1 0x0 ADD MLOAD PUSH1 0x40 MLOAD DUP1 PUSH1 0x20 ADD PUSH1 0x40 MSTORE DUP1 PUSH1 0x0 DUP2 MSTORE POP PUSH2 0x57C JUMP JUMPDEST ISZERO JUMPDEST ISZERO PUSH2 0x508 JUMPI DUP2 PUSH1 0x0 ADD MLOAD PUSH1 0x2 PUSH1 0x0 DUP6 PUSH4 0xFFFFFFFF AND PUSH4 0xFFFFFFFF AND DUP2 MSTORE PUSH1 0x20 ADD SWAP1 DUP2 MSTORE PUSH1 0x20 ADD PUSH1 0x0 KECCAK256 PUSH1 0x0 ADD SWAP1 DUP2 PUSH2 0x506 SWAP2 SWAP1 PUSH2 0xC7D JUMP JUMPDEST POP JUMPDEST DUP2 PUSH1 0x20 ADD MLOAD PUSH2 0xFFFF AND DUP2 PUSH1 0x20 ADD MLOAD PUSH2 0xFFFF AND EQ ISZERO DUP1 ISZERO PUSH2 0x530 JUMPI POP PUSH1 0x0 DUP3 PUSH1 0x20 ADD MLOAD PUSH2 0xFFFF AND GT JUMPDEST ISZERO PUSH2 0x577 JUMPI DUP2 PUSH1 0x20 ADD MLOAD PUSH1 0x2 PUSH1 0x0 DUP6 PUSH4 0xFFFFFFFF AND PUSH4 0xFFFFFFFF AND DUP2 MSTORE PUSH1 0x20 ADD SWAP1 DUP2 MSTORE PUSH1 0x20 ADD PUSH1 0x0 KECCAK256 PUSH1 0x1 ADD PUSH1 0x0 PUSH2 0x100 EXP DUP2 SLOAD DUP2 PUSH2 0xFFFF MUL NOT AND SWAP1 DUP4 PUSH2 0xFFFF AND MUL OR SWAP1 SSTORE POP JUMPDEST POP POP POP JUMP JUMPDEST PUSH1 0x0 DUP1 DUP4 SWAP1 POP PUSH1 0x0 DUP4 SWAP1 POP DUP1 MLOAD DUP3 MLOAD EQ DUP1 ISZERO PUSH2 0x5A5 JUMPI POP DUP1 DUP1 MLOAD SWAP1 PUSH1 0x20 ADD KECCAK256 DUP3 DUP1 MLOAD SWAP1 PUSH1 0x20 ADD KECCAK256 EQ JUMPDEST SWAP3 POP POP POP SWAP3 SWAP2 POP POP JUMP JUMPDEST POP DUP1 SLOAD PUSH2 0x5BB SWAP1 PUSH2 0xA45 JUMP JUMPDEST PUSH1 0x0 DUP3 SSTORE DUP1 PUSH1 0x1F LT PUSH2 0x5CD JUMPI POP PUSH2 0x5EC JUMP JUMPDEST PUSH1 0x1F ADD PUSH1 0x20 SWAP1 DIV SWAP1 PUSH1 0x0 MSTORE PUSH1 0x20 PUSH1 0x0 KECCAK256 SWAP1 DUP2 ADD SWAP1 PUSH2 0x5EB SWAP2 SWAP1 PUSH2 0x5EF JUMP JUMPDEST JUMPDEST POP JUMP JUMPDEST JUMPDEST DUP1 DUP3 GT ISZERO PUSH2 0x608 JUMPI PUSH1 0x0 DUP2 PUSH1 0x0 SWAP1 SSTORE POP PUSH1 0x1 ADD PUSH2 0x5F0 JUMP JUMPDEST POP SWAP1 JUMP JUMPDEST PUSH1 0x0 DUP2 SWAP1 POP SWAP2 SWAP1 POP JUMP JUMPDEST PUSH2 0x61F DUP2 PUSH2 0x60C JUMP JUMPDEST DUP3 MSTORE POP POP JUMP JUMPDEST PUSH1 0x0 PUSH1 0x20 DUP3 ADD SWAP1 POP PUSH2 0x63A PUSH1 0x0 DUP4 ADD DUP5 PUSH2 0x616 JUMP JUMPDEST SWAP3 SWAP2 POP POP JUMP JUMPDEST PUSH1 0x0 PUSH1 0x40 MLOAD SWAP1 POP SWAP1 JUMP JUMPDEST PUSH1 0x0 DUP1 REVERT JUMPDEST PUSH1 0x0 DUP1 REVERT JUMPDEST PUSH1 0x0 PUSH4 0xFFFFFFFF DUP3 AND SWAP1 POP SWAP2 SWAP1 POP JUMP JUMPDEST PUSH2 0x66D DUP2 PUSH2 0x654 JUMP JUMPDEST DUP2 EQ PUSH2 0x678 JUMPI PUSH1 0x0 DUP1 REVERT JUMPDEST POP JUMP JUMPDEST PUSH1 0x0 DUP2 CALLDATALOAD SWAP1 POP PUSH2 0x68A DUP2 PUSH2 0x664 JUMP JUMPDEST SWAP3 SWAP2 POP POP JUMP JUMPDEST PUSH1 0x0 PUSH1 0x20 DUP3 DUP5 SUB SLT ISZERO PUSH2 0x6A6 JUMPI PUSH2 0x6A5 PUSH2 0x64A JUMP JUMPDEST JUMPDEST PUSH1 0x0 PUSH2 0x6B4 DUP5 DUP3 DUP6 ADD PUSH2 0x67B JUMP JUMPDEST SWAP2 POP POP SWAP3 SWAP2 POP POP JUMP JUMPDEST PUSH1 0x0 DUP2 MLOAD SWAP1 POP SWAP2 SWAP1 POP JUMP JUMPDEST PUSH1 0x0 DUP3 DUP3 MSTORE PUSH1 0x20 DUP3 ADD SWAP1 POP SWAP3 SWAP2 POP POP JUMP JUMPDEST PUSH1 0x0 JUMPDEST DUP4 DUP2 LT ISZERO PUSH2 0x6F7 JUMPI DUP1 DUP3 ADD MLOAD DUP2 DUP5 ADD MSTORE PUSH1 0x20 DUP2 ADD SWAP1 POP PUSH2 0x6DC JUMP JUMPDEST PUSH1 0x0 DUP5 DUP5 ADD MSTORE POP POP POP POP JUMP JUMPDEST PUSH1 0x0 PUSH1 0x1F NOT PUSH1 0x1F DUP4 ADD AND SWAP1 POP SWAP2 SWAP1 POP JUMP JUMPDEST PUSH1 0x0 PUSH2 0x71F DUP3 PUSH2 0x6BD JUMP JUMPDEST PUSH2 0x729 DUP2 DUP6 PUSH2 0x6C8 JUMP JUMPDEST SWAP4 POP PUSH2 0x739 DUP2 DUP6 PUSH1 0x20 DUP7 ADD PUSH2 0x6D9 JUMP JUMPDEST PUSH2 0x742 DUP2 PUSH2 0x703 JUMP JUMPDEST DUP5 ADD SWAP2 POP POP SWAP3 SWAP2 POP POP JUMP JUMPDEST PUSH1 0x0 PUSH2 0xFFFF DUP3 AND SWAP1 POP SWAP2 SWAP1 POP JUMP JUMPDEST PUSH2 0x764 DUP2 PUSH2 0x74D JUMP JUMPDEST DUP3 MSTORE POP POP JUMP JUMPDEST PUSH1 0x0 PUSH1 0x40 DUP3 ADD SWAP1 POP DUP2 DUP2 SUB PUSH1 0x0 DUP4 ADD MSTORE PUSH2 0x784 DUP2 DUP6 PUSH2 0x714 JUMP JUMPDEST SWAP1 POP PUSH2 0x793 PUSH1 0x20 DUP4 ADD DUP5 PUSH2 0x75B JUMP JUMPDEST SWAP4 SWAP3 POP POP POP JUMP JUMPDEST PUSH1 0x0 DUP1 REVERT JUMPDEST PUSH32 0x4E487B7100000000000000000000000000000000000000000000000000000000 PUSH1 0x0 MSTORE PUSH1 0x41 PUSH1 0x4 MSTORE PUSH1 0x24 PUSH1 0x0 REVERT JUMPDEST PUSH2 0x7D7 DUP3 PUSH2 0x703 JUMP JUMPDEST DUP2 ADD DUP2 DUP2 LT PUSH8 0xFFFFFFFFFFFFFFFF DUP3 GT OR ISZERO PUSH2 0x7F6 JUMPI PUSH2 0x7F5 PUSH2 0x79F JUMP JUMPDEST JUMPDEST DUP1 PUSH1 0x40 MSTORE POP POP POP JUMP JUMPDEST PUSH1 0x0 PUSH2 0x809 PUSH2 0x640 JUMP JUMPDEST SWAP1 POP PUSH2 0x815 DUP3 DUP3 PUSH2 0x7CE JUMP JUMPDEST SWAP2 SWAP1 POP JUMP JUMPDEST PUSH1 0x0 DUP1 REVERT JUMPDEST PUSH1 0x0 DUP1 REVERT JUMPDEST PUSH1 0x0 DUP1 REVERT JUMPDEST PUSH1 0x0 PUSH8 0xFFFFFFFFFFFFFFFF DUP3 GT ISZERO PUSH2 0x844 JUMPI PUSH2 0x843 PUSH2 0x79F JUMP JUMPDEST JUMPDEST PUSH2 0x84D DUP3 PUSH2 0x703 JUMP JUMPDEST SWAP1 POP PUSH1 0x20 DUP2 ADD SWAP1 POP SWAP2 SWAP1 POP JUMP JUMPDEST DUP3 DUP2 DUP4 CALLDATACOPY PUSH1 0x0 DUP4 DUP4 ADD MSTORE POP POP POP JUMP JUMPDEST PUSH1 0x0 PUSH2 0x87C PUSH2 0x877 DUP5 PUSH2 0x829 JUMP JUMPDEST PUSH2 0x7FF JUMP JUMPDEST SWAP1 POP DUP3 DUP2 MSTORE PUSH1 0x20 DUP2 ADD DUP5 DUP5 DUP5 ADD GT ISZERO PUSH2 0x898 JUMPI PUSH2 0x897 PUSH2 0x824 JUMP JUMPDEST JUMPDEST PUSH2 0x8A3 DUP5 DUP3 DUP6 PUSH2 0x85A JUMP JUMPDEST POP SWAP4 SWAP3 POP POP POP JUMP JUMPDEST PUSH1 0x0 DUP3 PUSH1 0x1F DUP4 ADD SLT PUSH2 0x8C0 JUMPI PUSH2 0x8BF PUSH2 0x81F JUMP JUMPDEST JUMPDEST DUP2 CALLDATALOAD PUSH2 0x8D0 DUP5 DUP3 PUSH1 0x20 DUP7 ADD PUSH2 0x869 JUMP JUMPDEST SWAP2 POP POP SWAP3 SWAP2 POP POP JUMP JUMPDEST PUSH2 0x8E2 DUP2 PUSH2 0x74D JUMP JUMPDEST DUP2 EQ PUSH2 0x8ED JUMPI PUSH1 0x0 DUP1 REVERT JUMPDEST POP JUMP JUMPDEST PUSH1 0x0 DUP2 CALLDATALOAD SWAP1 POP PUSH2 0x8FF DUP2 PUSH2 0x8D9 JUMP JUMPDEST SWAP3 SWAP2 POP POP JUMP JUMPDEST PUSH1 0x0 PUSH1 0x40 DUP3 DUP5 SUB SLT ISZERO PUSH2 0x91B JUMPI PUSH2 0x91A PUSH2 0x79A JUMP JUMPDEST JUMPDEST PUSH2 0x925 PUSH1 0x40 PUSH2 0x7FF JUMP JUMPDEST SWAP1 POP PUSH1 0x0 DUP3 ADD CALLDATALOAD PUSH8 0xFFFFFFFFFFFFFFFF DUP2 GT ISZERO PUSH2 0x945 JUMPI PUSH2 0x944 PUSH2 0x81A JUMP JUMPDEST JUMPDEST PUSH2 0x951 DUP5 DUP3 DUP6 ADD PUSH2 0x8AB JUMP JUMPDEST PUSH1 0x0 DUP4 ADD MSTORE POP PUSH1 0x20 PUSH2 0x965 DUP5 DUP3 DUP6 ADD PUSH2 0x8F0 JUMP JUMPDEST PUSH1 0x20 DUP4 ADD MSTORE POP SWAP3 SWAP2 POP POP JUMP JUMPDEST PUSH1 0x0 PUSH1 0x20 DUP3 DUP5 SUB SLT ISZERO PUSH2 0x987 JUMPI PUSH2 0x986 PUSH2 0x64A JUMP JUMPDEST JUMPDEST PUSH1 0x0 DUP3 ADD CALLDATALOAD PUSH8 0xFFFFFFFFFFFFFFFF DUP2 GT ISZERO PUSH2 0x9A5 JUMPI PUSH2 0x9A4 PUSH2 0x64F JUMP JUMPDEST JUMPDEST PUSH2 0x9B1 DUP5 DUP3 DUP6 ADD PUSH2 0x905 JUMP JUMPDEST SWAP2 POP POP SWAP3 SWAP2 POP POP JUMP JUMPDEST PUSH1 0x0 DUP1 PUSH1 0x40 DUP4 DUP6 SUB SLT ISZERO PUSH2 0x9D1 JUMPI PUSH2 0x9D0 PUSH2 0x64A JUMP JUMPDEST JUMPDEST PUSH1 0x0 PUSH2 0x9DF DUP6 DUP3 DUP7 ADD PUSH2 0x67B JUMP JUMPDEST SWAP3 POP POP PUSH1 0x20 DUP4 ADD CALLDATALOAD PUSH8 0xFFFFFFFFFFFFFFFF DUP2 GT ISZERO PUSH2 0xA00 JUMPI PUSH2 0x9FF PUSH2 0x64F JUMP JUMPDEST JUMPDEST PUSH2 0xA0C DUP6 DUP3 DUP7 ADD PUSH2 0x905 JUMP JUMPDEST SWAP2 POP POP SWAP3 POP SWAP3 SWAP1 POP JUMP JUMPDEST PUSH32 0x4E487B7100000000000000000000000000000000000000000000000000000000 PUSH1 0x0 MSTORE PUSH1 0x22 PUSH1 0x4 MSTORE PUSH1 0x24 PUSH1 0x0 REVERT JUMPDEST PUSH1 0x0 PUSH1 0x2 DUP3 DIV SWAP1 POP PUSH1 0x1 DUP3 AND DUP1 PUSH2 0xA5D JUMPI PUSH1 0x7F DUP3 AND SWAP2 POP JUMPDEST PUSH1 0x20 DUP3 LT DUP2 SUB PUSH2 0xA70 JUMPI PUSH2 0xA6F PUSH2 0xA16 JUMP JUMPDEST JUMPDEST POP SWAP2 SWAP1 POP JUMP JUMPDEST PUSH32 0x4E487B7100000000000000000000000000000000000000000000000000000000 PUSH1 0x0 MSTORE PUSH1 0x11 PUSH1 0x4 MSTORE PUSH1 0x24 PUSH1 0x0 REVERT JUMPDEST PUSH1 0x0 PUSH2 0xAB0 DUP3 PUSH2 0x654 JUMP JUMPDEST SWAP2 POP PUSH4 0xFFFFFFFF DUP3 SUB PUSH2 0xAC6 JUMPI PUSH2 0xAC5 PUSH2 0xA76 JUMP JUMPDEST JUMPDEST PUSH1 0x1 DUP3 ADD SWAP1 POP SWAP2 SWAP1 POP JUMP JUMPDEST PUSH1 0x0 DUP2 SWAP1 POP DUP2 PUSH1 0x0 MSTORE PUSH1 0x20 PUSH1 0x0 KECCAK256 SWAP1 POP SWAP2 SWAP1 POP JUMP JUMPDEST PUSH1 0x0 PUSH1 0x20 PUSH1 0x1F DUP4 ADD DIV SWAP1 POP SWAP2 SWAP1 POP JUMP JUMPDEST PUSH1 0x0 DUP3 DUP3 SHL SWAP1 POP SWAP3 SWAP2 POP POP JUMP JUMPDEST PUSH1 0x0 PUSH1 0x8 DUP4 MUL PUSH2 0xB33 PUSH32 0xFFFFFFFFFFFFFFFFFFFFFFFFFFFFFFFFFFFFFFFFFFFFFFFFFFFFFFFFFFFFFFFF DUP3 PUSH2 0xAF6 JUMP JUMPDEST PUSH2 0xB3D DUP7 DUP4 PUSH2 0xAF6 JUMP JUMPDEST SWAP6 POP DUP1 NOT DUP5 AND SWAP4 POP DUP1 DUP7 AND DUP5 OR SWAP3 POP POP POP SWAP4 SWAP3 POP POP POP JUMP JUMPDEST PUSH1 0x0 DUP2 SWAP1 POP SWAP2 SWAP1 POP JUMP JUMPDEST PUSH1 0x0 PUSH2 0xB7A PUSH2 0xB75 PUSH2 0xB70 DUP5 PUSH2 0x60C JUMP JUMPDEST PUSH2 0xB55 JUMP JUMPDEST PUSH2 0x60C JUMP JUMPDEST SWAP1 POP SWAP2 SWAP1 POP JUMP JUMPDEST PUSH1 0x0 DUP2 SWAP1 POP SWAP2 SWAP1 POP JUMP JUMPDEST PUSH2 0xB94 DUP4 PUSH2 0xB5F JUMP JUMPDEST PUSH2 0xBA8 PUSH2 0xBA0 DUP3 PUSH2 0xB81 JUMP JUMPDEST DUP5 DUP5 SLOAD PUSH2 0xB03 JUMP JUMPDEST DUP3 SSTORE POP POP POP POP JUMP JUMPDEST PUSH1 0x0 SWAP1 JUMP JUMPDEST PUSH2 0xBBD PUSH2 0xBB0 JUMP JUMPDEST PUSH2 0xBC8 DUP2 DUP5 DUP5 PUSH2 0xB8B JUMP JUMPDEST POP POP POP JUMP JUMPDEST JUMPDEST DUP2 DUP2 LT ISZERO PUSH2 0xBEC JUMPI PUSH2 0xBE1 PUSH1 0x0 DUP3 PUSH2 0xBB5 JUMP JUMPDEST PUSH1 0x1 DUP2 ADD SWAP1 POP PUSH2 0xBCE JUMP JUMPDEST POP POP JUMP JUMPDEST PUSH1 0x1F DUP3 GT ISZERO PUSH2 0xC31 JUMPI PUSH2 0xC02 DUP2 PUSH2 0xAD1 JUMP JUMPDEST PUSH2 0xC0B DUP5 PUSH2 0xAE6 JUMP JUMPDEST DUP2 ADD PUSH1 0x20 DUP6 LT ISZERO PUSH2 0xC1A JUMPI DUP2 SWAP1 POP JUMPDEST PUSH2 0xC2E PUSH2 0xC26 DUP6 PUSH2 0xAE6 JUMP JUMPDEST DUP4 ADD DUP3 PUSH2 0xBCD JUMP JUMPDEST POP POP JUMPDEST POP POP POP JUMP JUMPDEST PUSH1 0x0 DUP3 DUP3 SHR SWAP1 POP SWAP3 SWAP2 POP POP JUMP JUMPDEST PUSH1 0x0 PUSH2 0xC54 PUSH1 0x0 NOT DUP5 PUSH1 0x8 MUL PUSH2 0xC36 JUMP JUMPDEST NOT DUP1 DUP4 AND SWAP2 POP POP SWAP3 SWAP2 POP POP JUMP JUMPDEST PUSH1 0x0 PUSH2 0xC6D DUP4 DUP4 PUSH2 0xC43 JUMP JUMPDEST SWAP2 POP DUP3 PUSH1 0x2 MUL DUP3 OR SWAP1 POP SWAP3 SWAP2 POP POP JUMP JUMPDEST PUSH2 0xC86 DUP3 PUSH2 0x6BD JUMP JUMPDEST PUSH8 0xFFFFFFFFFFFFFFFF DUP2 GT ISZERO PUSH2 0xC9F JUMPI PUSH2 0xC9E PUSH2 0x79F JUMP JUMPDEST JUMPDEST PUSH2 0xCA9 DUP3 SLOAD PUSH2 0xA45 JUMP JUMPDEST PUSH2 0xCB4 DUP3 DUP3 DUP6 PUSH2 0xBF0 JUMP JUMPDEST PUSH1 0x0 PUSH1 0x20 SWAP1 POP PUSH1 0x1F DUP4 GT PUSH1 0x1 DUP2 EQ PUSH2 0xCE7 JUMPI PUSH1 0x0 DUP5 ISZERO PUSH2 0xCD5 JUMPI DUP3 DUP8 ADD MLOAD SWAP1 POP JUMPDEST PUSH2 0xCDF DUP6 DUP3 PUSH2 0xC61 JUMP JUMPDEST DUP7 SSTORE POP PUSH2 0xD47 JUMP JUMPDEST PUSH1 0x1F NOT DUP5 AND PUSH2 0xCF5 DUP7 PUSH2 0xAD1 JUMP JUMPDEST PUSH1 0x0 JUMPDEST DUP3 DUP2 LT ISZERO PUSH2 0xD1D JUMPI DUP5 DUP10 ADD MLOAD DUP3 SSTORE PUSH1 0x1 DUP3 ADD SWAP2 POP PUSH1 0x20 DUP6 ADD SWAP5 POP PUSH1 0x20 DUP2 ADD SWAP1 POP PUSH2 0xCF8 JUMP JUMPDEST DUP7 DUP4 LT ISZERO PUSH2 0xD3A JUMPI DUP5 DUP10 ADD MLOAD PUSH2 0xD36 PUSH1 0x1F DUP10 AND DUP3 PUSH2 0xC43 JUMP JUMPDEST DUP4 SSTORE POP JUMPDEST PUSH1 0x1 PUSH1 0x2 DUP9 MUL ADD DUP9 SSTORE POP POP POP JUMPDEST POP POP POP POP POP POP JUMP JUMPDEST PUSH1 0x0 PUSH2 0xD5A DUP3 PUSH2 0x60C JUMP JUMPDEST SWAP2 POP PUSH32 0xFFFFFFFFFFFFFFFFFFFFFFFFFFFFFFFFFFFFFFFFFFFFFFFFFFFFFFFFFFFFFFFF DUP3 SUB PUSH2 0xD8C JUMPI PUSH2 0xD8B PUSH2 0xA76 JUMP JUMPDEST JUMPDEST PUSH1 0x1 DUP3 ADD SWAP1 POP SWAP2 SWAP1 POP JUMP JUMPDEST PUSH32 0x596F7520646F6E27742068617665207065726D697373696F6E20666F72206974 PUSH1 0x0 DUP3 ADD MSTORE PUSH32 0x2E00000000000000000000000000000000000000000000000000000000000000 PUSH1 0x20 DUP3 ADD MSTORE POP JUMP JUMPDEST PUSH1 0x0 PUSH2 0xDF3 PUSH1 0x21 DUP4 PUSH2 0x6C8 JUMP JUMPDEST SWAP2 POP PUSH2 0xDFE DUP3 PUSH2 0xD97 JUMP JUMPDEST PUSH1 0x40 DUP3 ADD SWAP1 POP SWAP2 SWAP1 POP JUMP JUMPDEST PUSH1 0x0 PUSH1 0x20 DUP3 ADD SWAP1 POP DUP2 DUP2 SUB PUSH1 0x0 DUP4 ADD MSTORE PUSH2 0xE22 DUP2 PUSH2 0xDE6 JUMP JUMPDEST SWAP1 POP SWAP2 SWAP1 POP JUMP JUMPDEST PUSH1 0x0 PUSH2 0xE34 DUP3 PUSH2 0x60C JUMP JUMPDEST SWAP2 POP PUSH1 0x0 DUP3 SUB PUSH2 0xE47 JUMPI PUSH2 0xE46 PUSH2 0xA76 JUMP JUMPDEST JUMPDEST PUSH1 0x1 DUP3 SUB SWAP1 POP SWAP2 SWAP1 POP JUMP INVALID LOG2 PUSH5 0x6970667358 0x22 SLT KECCAK256 0xEC PUSH18 0xA47CE459BF4B328E8678B1FBC13CC36DBF37 LOG3 XOR 0xC4 SWAP13 0xC4 0xC3 LOG4 0x22 PUSH23 0xBA123164736F6C63430008140033000000000000000000 "
        },
        "methodIdentifiers": {
          "addBook((string,uint16))": "b19a4635",
          "books(uint32)": "68d748ca",
          "count()": "06661abd",
          "editBook(uint32,(string,uint16))": "feaeb5ab",
          "removeBook(uint32)": "e9e7ff0c"
        }
      }
    }
  }
}